{
  "contractName": "ProofOfAction",
  "abi": [
    {
      "inputs": [],
      "payable": false,
      "stateMutability": "nonpayable",
      "type": "constructor"
    },
    {
      "anonymous": false,
      "inputs": [
        {
          "indexed": false,
          "internalType": "uint256",
          "name": "id",
          "type": "uint256"
        },
        {
          "indexed": false,
          "internalType": "string",
          "name": "hash",
          "type": "string"
        },
        {
          "indexed": false,
          "internalType": "string",
          "name": "description",
          "type": "string"
        },
        {
          "indexed": false,
          "internalType": "uint256",
          "name": "tipAmount",
          "type": "uint256"
        },
        {
          "indexed": false,
          "internalType": "address payable",
          "name": "author",
          "type": "address"
        }
      ],
      "name": "ImageCreated",
      "type": "event"
    },
    {
      "anonymous": false,
      "inputs": [
        {
          "indexed": false,
          "internalType": "uint256",
          "name": "id",
          "type": "uint256"
        },
        {
          "indexed": false,
          "internalType": "string",
          "name": "hash",
          "type": "string"
        },
        {
          "indexed": false,
          "internalType": "string",
          "name": "description",
          "type": "string"
        },
        {
          "indexed": false,
          "internalType": "uint256",
          "name": "tipAmount",
          "type": "uint256"
        },
        {
          "indexed": false,
          "internalType": "address payable",
          "name": "author",
          "type": "address"
        }
      ],
      "name": "ImageTipped",
      "type": "event"
    },
    {
      "anonymous": false,
      "inputs": [
        {
          "indexed": false,
          "internalType": "uint256",
          "name": "tipTotal",
          "type": "uint256"
        },
        {
          "indexed": false,
          "internalType": "string",
          "name": "profilePicHash",
          "type": "string"
        },
        {
          "indexed": false,
          "internalType": "string",
          "name": "bio",
          "type": "string"
        }
      ],
      "name": "ProfileCreated",
      "type": "event"
    },
    {
      "constant": true,
      "inputs": [],
      "name": "imageCount",
      "outputs": [
        {
          "internalType": "uint256",
          "name": "",
          "type": "uint256"
        }
      ],
      "payable": false,
      "stateMutability": "view",
      "type": "function"
    },
    {
      "constant": true,
      "inputs": [
        {
          "internalType": "uint256",
          "name": "",
          "type": "uint256"
        }
      ],
      "name": "images",
      "outputs": [
        {
          "internalType": "uint256",
          "name": "id",
          "type": "uint256"
        },
        {
          "internalType": "string",
          "name": "hash",
          "type": "string"
        },
        {
          "internalType": "string",
          "name": "description",
          "type": "string"
        },
        {
          "internalType": "uint256",
          "name": "tipAmount",
          "type": "uint256"
        },
        {
          "internalType": "address payable",
          "name": "author",
          "type": "address"
        }
      ],
      "payable": false,
      "stateMutability": "view",
      "type": "function"
    },
    {
      "constant": true,
      "inputs": [],
      "name": "name",
      "outputs": [
        {
          "internalType": "string",
          "name": "",
          "type": "string"
        }
      ],
      "payable": false,
      "stateMutability": "view",
      "type": "function"
    },
    {
      "constant": true,
      "inputs": [
        {
          "internalType": "address",
          "name": "",
          "type": "address"
        }
      ],
      "name": "profiles",
      "outputs": [
        {
          "internalType": "uint256",
          "name": "tipTotal",
          "type": "uint256"
        },
        {
          "internalType": "string",
          "name": "profilePicHash",
          "type": "string"
        },
        {
          "internalType": "string",
          "name": "bio",
          "type": "string"
        }
      ],
      "payable": false,
      "stateMutability": "view",
      "type": "function"
    },
    {
      "constant": false,
      "inputs": [
        {
          "internalType": "string",
          "name": "_imgHash",
          "type": "string"
        },
        {
          "internalType": "string",
          "name": "_description",
          "type": "string"
        }
      ],
      "name": "uploadImage",
      "outputs": [],
      "payable": false,
      "stateMutability": "nonpayable",
      "type": "function"
    },
    {
      "constant": false,
      "inputs": [
        {
          "internalType": "uint256",
          "name": "_id",
          "type": "uint256"
        }
      ],
      "name": "tipImageOwner",
      "outputs": [],
      "payable": true,
      "stateMutability": "payable",
      "type": "function"
    },
    {
      "constant": false,
      "inputs": [
        {
          "internalType": "string",
          "name": "_profilePicHash",
          "type": "string"
        },
        {
          "internalType": "string",
          "name": "_bio",
          "type": "string"
        }
      ],
      "name": "updateProfile",
      "outputs": [],
      "payable": false,
      "stateMutability": "nonpayable",
      "type": "function"
    },
    {
      "constant": true,
      "inputs": [
        {
          "internalType": "address",
          "name": "user",
          "type": "address"
        }
      ],
      "name": "grabProfilePicture",
      "outputs": [
        {
          "internalType": "string",
          "name": "hash",
          "type": "string"
        }
      ],
      "payable": false,
      "stateMutability": "view",
      "type": "function"
    },
    {
      "constant": true,
      "inputs": [
        {
          "internalType": "address",
          "name": "user",
          "type": "address"
        }
      ],
      "name": "grabProfileBio",
      "outputs": [
        {
          "internalType": "string",
          "name": "bio",
          "type": "string"
        }
      ],
      "payable": false,
      "stateMutability": "view",
      "type": "function"
    }
  ],
  "bytecode": "0x608060405260006001553480156200001657600080fd5b506040518060400160405280600f81526020017f50726f6f66204f6620416374696f6e000000000000000000000000000000000081525060009080519060200190620000649291906200006b565b506200011a565b828054600181600116156101000203166002900490600052602060002090601f016020900481019282601f10620000ae57805160ff1916838001178555620000df565b82800160010185558215620000df579182015b82811115620000de578251825591602001919060010190620000c1565b5b509050620000ee9190620000f2565b5090565b6200011791905b8082111562000113576000816000905550600101620000f9565b5090565b90565b6118f0806200012a6000396000f3fe6080604052600436106100865760003560e01c806392053b631161005957806392053b6314610374578063a91b83141461039f578063bbe15627146104fe578063c4c66b3a1461063b578063c9d3cc6a1461070557610086565b806306fdde031461008b5780636119b42d1461011b57806384856482146101e55780638567ade814610346575b600080fd5b34801561009757600080fd5b506100a0610864565b6040518080602001828103825283818151815260200191508051906020019080838360005b838110156100e05780820151818401526020810190506100c5565b50505050905090810190601f16801561010d5780820380516001836020036101000a031916815260200191505b509250505060405180910390f35b34801561012757600080fd5b5061016a6004803603602081101561013e57600080fd5b81019080803573ffffffffffffffffffffffffffffffffffffffff169060200190929190505050610902565b6040518080602001828103825283818151815260200191508051906020019080838360005b838110156101aa57808201518184015260208101905061018f565b50505050905090810190601f1680156101d75780820380516001836020036101000a031916815260200191505b509250505060405180910390f35b3480156101f157600080fd5b5061021e6004803603602081101561020857600080fd5b81019080803590602001909291905050506109e6565b6040518086815260200180602001806020018581526020018473ffffffffffffffffffffffffffffffffffffffff1673ffffffffffffffffffffffffffffffffffffffff168152602001838103835287818151815260200191508051906020019080838360005b838110156102a0578082015181840152602081019050610285565b50505050905090810190601f1680156102cd5780820380516001836020036101000a031916815260200191505b50838103825286818151815260200191508051906020019080838360005b838110156103065780820151818401526020810190506102eb565b50505050905090810190601f1680156103335780820380516001836020036101000a031916815260200191505b5097505050505050505060405180910390f35b6103726004803603602081101561035c57600080fd5b8101908080359060200190929190505050610b6c565b005b34801561038057600080fd5b50610389611009565b6040518082815260200191505060405180910390f35b3480156103ab57600080fd5b506104fc600480360360408110156103c257600080fd5b81019080803590602001906401000000008111156103df57600080fd5b8201836020820111156103f157600080fd5b8035906020019184600183028401116401000000008311171561041357600080fd5b91908080601f016020809104026020016040519081016040528093929190818152602001838380828437600081840152601f19601f8201169050808301925050505050505091929192908035906020019064010000000081111561047657600080fd5b82018360208201111561048857600080fd5b803590602001918460018302840111640100000000831117156104aa57600080fd5b91908080601f016020809104026020016040519081016040528093929190818152602001838380828437600081840152601f19601f82011690508083019250505050505050919291929050505061100f565b005b34801561050a57600080fd5b5061054d6004803603602081101561052157600080fd5b81019080803573ffffffffffffffffffffffffffffffffffffffff1690602001909291905050506112b8565b604051808481526020018060200180602001838103835285818151815260200191508051906020019080838360005b8381101561059757808201518184015260208101905061057c565b50505050905090810190601f1680156105c45780820380516001836020036101000a031916815260200191505b50838103825284818151815260200191508051906020019080838360005b838110156105fd5780820151818401526020810190506105e2565b50505050905090810190601f16801561062a5780820380516001836020036101000a031916815260200191505b509550505050505060405180910390f35b34801561064757600080fd5b5061068a6004803603602081101561065e57600080fd5b81019080803573ffffffffffffffffffffffffffffffffffffffff169060200190929190505050611412565b6040518080602001828103825283818151815260200191508051906020019080838360005b838110156106ca5780820151818401526020810190506106af565b50505050905090810190601f1680156106f75780820380516001836020036101000a031916815260200191505b509250505060405180910390f35b34801561071157600080fd5b506108626004803603604081101561072857600080fd5b810190808035906020019064010000000081111561074557600080fd5b82018360208201111561075757600080fd5b8035906020019184600183028401116401000000008311171561077957600080fd5b91908080601f016020809104026020016040519081016040528093929190818152602001838380828437600081840152601f19601f820116905080830192505050505050509192919290803590602001906401000000008111156107dc57600080fd5b8201836020820111156107ee57600080fd5b8035906020019184600183028401116401000000008311171561081057600080fd5b91908080601f016020809104026020016040519081016040528093929190818152602001838380828437600081840152601f19601f8201169050808301925050505050505091929192905050506114f6565b005b60008054600181600116156101000203166002900480601f0160208091040260200160405190810160405280929190818152602001828054600181600116156101000203166002900480156108fa5780601f106108cf576101008083540402835291602001916108fa565b820191906000526020600020905b8154815290600101906020018083116108dd57829003601f168201915b505050505081565b6060600360008373ffffffffffffffffffffffffffffffffffffffff1673ffffffffffffffffffffffffffffffffffffffff1681526020019081526020016000206002018054600181600116156101000203166002900480601f0160208091040260200160405190810160405280929190818152602001828054600181600116156101000203166002900480156109da5780601f106109af576101008083540402835291602001916109da565b820191906000526020600020905b8154815290600101906020018083116109bd57829003601f168201915b50505050509050919050565b6002602052806000526040600020600091509050806000015490806001018054600181600116156101000203166002900480601f016020809104026020016040519081016040528092919081815260200182805460018160011615610100020316600290048015610a985780601f10610a6d57610100808354040283529160200191610a98565b820191906000526020600020905b815481529060010190602001808311610a7b57829003601f168201915b505050505090806002018054600181600116156101000203166002900480601f016020809104026020016040519081016040528092919081815260200182805460018160011615610100020316600290048015610b365780601f10610b0b57610100808354040283529160200191610b36565b820191906000526020600020905b815481529060010190602001808311610b1957829003601f168201915b5050505050908060030154908060040160009054906101000a900473ffffffffffffffffffffffffffffffffffffffff16905085565b600081118015610b7e57506001548111155b610b8757600080fd5b610b8f611751565b600260008381526020019081526020016000206040518060a001604052908160008201548152602001600182018054600181600116156101000203166002900480601f016020809104026020016040519081016040528092919081815260200182805460018160011615610100020316600290048015610c505780601f10610c2557610100808354040283529160200191610c50565b820191906000526020600020905b815481529060010190602001808311610c3357829003601f168201915b50505050508152602001600282018054600181600116156101000203166002900480601f016020809104026020016040519081016040528092919081815260200182805460018160011615610100020316600290048015610cf25780601f10610cc757610100808354040283529160200191610cf2565b820191906000526020600020905b815481529060010190602001808311610cd557829003601f168201915b50505050508152602001600382015481526020016004820160009054906101000a900473ffffffffffffffffffffffffffffffffffffffff1673ffffffffffffffffffffffffffffffffffffffff1673ffffffffffffffffffffffffffffffffffffffff168152505090506000816080015190508073ffffffffffffffffffffffffffffffffffffffff166108fc349081150290604051600060405180830381858888f19350505050158015610dac573d6000803e3d6000fd5b503482606001510182606001818152505034600360008373ffffffffffffffffffffffffffffffffffffffff1673ffffffffffffffffffffffffffffffffffffffff16815260200190815260200160002050508160026000858152602001908152602001600020600082015181600001556020820151816001019080519060200190610e39929190611796565b506040820151816002019080519060200190610e56929190611796565b506060820151816003015560808201518160040160006101000a81548173ffffffffffffffffffffffffffffffffffffffff021916908373ffffffffffffffffffffffffffffffffffffffff1602179055509050507f1be5317bca8d3f70dc1efe89958be71bff36cdca33fc00a6423e25eb2f1d492f83836020015184604001518560600151856040518086815260200180602001806020018581526020018473ffffffffffffffffffffffffffffffffffffffff1673ffffffffffffffffffffffffffffffffffffffff168152602001838103835287818151815260200191508051906020019080838360005b83811015610f5f578082015181840152602081019050610f44565b50505050905090810190601f168015610f8c5780820380516001836020036101000a031916815260200191505b50838103825286818151815260200191508051906020019080838360005b83811015610fc5578082015181840152602081019050610faa565b50505050905090810190601f168015610ff25780820380516001836020036101000a031916815260200191505b5097505050505050505060405180910390a1505050565b60015481565b600082511161101d57600080fd5b600081511161102b57600080fd5b600073ffffffffffffffffffffffffffffffffffffffff163373ffffffffffffffffffffffffffffffffffffffff16141561106557600080fd5b6001600081548092919060010191905055506040518060a001604052806001548152602001838152602001828152602001600081526020013373ffffffffffffffffffffffffffffffffffffffff168152506002600060015481526020019081526020016000206000820151816000015560208201518160010190805190602001906110f2929190611796565b50604082015181600201908051906020019061110f929190611796565b506060820151816003015560808201518160040160006101000a81548173ffffffffffffffffffffffffffffffffffffffff021916908373ffffffffffffffffffffffffffffffffffffffff1602179055509050507fc1d8dfa99b3f84f95d3f0bc4a768addeb97b83b20aef7f9cb6729e126bafd2f960015483836000336040518086815260200180602001806020018581526020018473ffffffffffffffffffffffffffffffffffffffff1673ffffffffffffffffffffffffffffffffffffffff168152602001838103835287818151815260200191508051906020019080838360005b8381101561120f5780820151818401526020810190506111f4565b50505050905090810190601f16801561123c5780820380516001836020036101000a031916815260200191505b50838103825286818151815260200191508051906020019080838360005b8381101561127557808201518184015260208101905061125a565b50505050905090810190601f1680156112a25780820380516001836020036101000a031916815260200191505b5097505050505050505060405180910390a15050565b6003602052806000526040600020600091509050806000015490806001018054600181600116156101000203166002900480601f01602080910402602001604051908101604052809291908181526020018280546001816001161561010002031660029004801561136a5780601f1061133f5761010080835404028352916020019161136a565b820191906000526020600020905b81548152906001019060200180831161134d57829003601f168201915b505050505090806002018054600181600116156101000203166002900480601f0160208091040260200160405190810160405280929190818152602001828054600181600116156101000203166002900480156114085780601f106113dd57610100808354040283529160200191611408565b820191906000526020600020905b8154815290600101906020018083116113eb57829003601f168201915b5050505050905083565b6060600360008373ffffffffffffffffffffffffffffffffffffffff1673ffffffffffffffffffffffffffffffffffffffff1681526020019081526020016000206001018054600181600116156101000203166002900480601f0160208091040260200160405190810160405280929190818152602001828054600181600116156101000203166002900480156114ea5780601f106114bf576101008083540402835291602001916114ea565b820191906000526020600020905b8154815290600101906020018083116114cd57829003601f168201915b50505050509050919050565b600082511161150457600080fd5b600081511161151257600080fd5b600073ffffffffffffffffffffffffffffffffffffffff163373ffffffffffffffffffffffffffffffffffffffff16141561154c57600080fd5b81600360003373ffffffffffffffffffffffffffffffffffffffff1673ffffffffffffffffffffffffffffffffffffffff16815260200190815260200160002060010190805190602001906115a2929190611816565b5080600360003373ffffffffffffffffffffffffffffffffffffffff1673ffffffffffffffffffffffffffffffffffffffff16815260200190815260200160002060020190805190602001906115f9929190611816565b507fad66a26e790e3a27613a7a148af3177796fedb64b67b67ff14f88eaa733de5c0600360003373ffffffffffffffffffffffffffffffffffffffff1673ffffffffffffffffffffffffffffffffffffffff168152602001908152602001600020600001548383604051808481526020018060200180602001838103835285818151815260200191508051906020019080838360005b838110156116aa57808201518184015260208101905061168f565b50505050905090810190601f1680156116d75780820380516001836020036101000a031916815260200191505b50838103825284818151815260200191508051906020019080838360005b838110156117105780820151818401526020810190506116f5565b50505050905090810190601f16801561173d5780820380516001836020036101000a031916815260200191505b509550505050505060405180910390a15050565b6040518060a0016040528060008152602001606081526020016060815260200160008152602001600073ffffffffffffffffffffffffffffffffffffffff1681525090565b828054600181600116156101000203166002900490600052602060002090601f016020900481019282601f106117d757805160ff1916838001178555611805565b82800160010185558215611805579182015b828111156118045782518255916020019190600101906117e9565b5b5090506118129190611896565b5090565b828054600181600116156101000203166002900490600052602060002090601f016020900481019282601f1061185757805160ff1916838001178555611885565b82800160010185558215611885579182015b82811115611884578251825591602001919060010190611869565b5b5090506118929190611896565b5090565b6118b891905b808211156118b457600081600090555060010161189c565b5090565b9056fea265627a7a723158206c42eaedb9bedd7927aedbd6c6e7ef3cf9f90b4834ee5cf1a7d84b7131f9321964736f6c63430005100032",
  "source": "pragma solidity ^0.5.0;\r\n\r\ncontract ProofOfAction {\r\n  string public name;\r\n  uint public imageCount = 0;\r\n  mapping(uint => Image) public images;\r\n  mapping(address => Profile) public profiles;\r\n\r\n  struct Image {\r\n    uint id;\r\n    string hash;\r\n    string description;\r\n    uint tipAmount;\r\n    address payable author;\r\n  }\r\n\r\n  struct Profile {\r\n    uint tipTotal;\r\n    string profilePicHash;\r\n    string bio;\r\n  }\r\n\r\n  event ImageCreated(\r\n    uint id,\r\n    string hash,\r\n    string description,\r\n    uint tipAmount,\r\n    address payable author\r\n  );\r\n\r\n  event ProfileCreated(\r\n    uint tipTotal,\r\n    string profilePicHash,\r\n    string bio\r\n  );\r\n\r\n  event ImageTipped(\r\n    uint id,\r\n    string hash,\r\n    string description,\r\n    uint tipAmount,\r\n    address payable author\r\n  );\r\n\r\n  constructor() public {\r\n    name = \"Proof Of Action\";\r\n  }\r\n\r\n  function uploadImage(string memory _imgHash, string memory _description) public {\r\n    // Make sure the image hash exists\r\n    require(bytes(_imgHash).length > 0);\r\n    // Make sure image description exists\r\n    require(bytes(_description).length > 0);\r\n    // Make sure uploader address exists\r\n    require(msg.sender!=address(0));\r\n\r\n    // Increment image id\r\n    imageCount ++;\r\n\r\n    // Add Image to the contract\r\n    images[imageCount] = Image(imageCount, _imgHash, _description, 0, msg.sender);\r\n    // Trigger an event\r\n    emit ImageCreated(imageCount, _imgHash, _description, 0, msg.sender);\r\n  }\r\n\r\n  function tipImageOwner(uint _id) public payable {\r\n    // Make sure the id is valid\r\n    require(_id > 0 && _id <= imageCount);\r\n    // Fetch the image\r\n    Image memory _image = images[_id];\r\n    // Fetch the author\r\n    address payable _author = _image.author;\r\n    // Pay the author by sending them Ether\r\n    address(_author).transfer(msg.value);\r\n    // Increment the tip amount\r\n    _image.tipAmount = _image.tipAmount + msg.value;\r\n    // Increment the tipTotal amount for poster\r\n    profiles[_author].tipTotal + msg.value;\r\n    // Update the image\r\n    images[_id] = _image;\r\n    // Trigger an event\r\n    emit ImageTipped(_id, _image.hash, _image.description, _image.tipAmount, _author);\r\n  }\r\n\r\n  function updateProfile(string memory _profilePicHash, string memory _bio) public {\r\n    // Make sure the image hash exists\r\n    require(bytes(_profilePicHash).length > 0);\r\n    // Make sure image description exists\r\n    require(bytes(_bio).length > 0);\r\n    // Make sure uploader address exists\r\n    require(msg.sender!=address(0));\r\n    // Sets new profile picture\r\n    profiles[msg.sender].profilePicHash = _profilePicHash;\r\n    // Sets new bio \r\n    profiles[msg.sender].bio = _bio;\r\n    // Trigger an event\r\n    emit ProfileCreated(profiles[msg.sender].tipTotal, _profilePicHash, _bio);\r\n  }\r\n\r\n  function grabProfilePicture(address user) public view returns (string memory hash) {\r\n    return profiles[user].profilePicHash;\r\n  }\r\n  function grabProfileBio(address user) public view returns (string memory bio) {\r\n    return profiles[user].bio;\r\n  }\r\n}\r\n",
  "sourcePath": "C:/Users/Posey/Desktop/Working/ProofOfAction/ReactMultiPageVersion/verbose-octo-journey/src/contracts/ProofOfAction.sol",
  "compiler": {
    "name": "solc",
    "version": "0.5.16+commit.9c3226ce.Emscripten.clang"
  },
  "schemaVersion": "3.4.1",
  "updatedAt": "2021-08-30T23:20:43.449Z",
  "networkType": "ethereum",
  "devdoc": {
    "methods": {}
  },
  "userdoc": {
    "methods": {}
  }
}